:020000040800F2
:1000000000800020A9150008BD120008C9120008D0
:10001000CF120008D5120008DB1200080000000013
:10002000000000000000000000000000E1120008D5
:10003000ED12000800000000F91200080513000886
:10004000F1150008F1150008F1150008F115000878
:10005000F1150008F1150008F1150008F115000868
:10006000F1150008F1150008F1150008F115000858
:10007000F1150008F1150008F1150008F115000848
:10008000F1150008F1150008F1150008F115000838
:10009000F1150008F1150008F1150008F115000828
:1000A000F1150008F1150008F1150008F115000818
:1000B000F1150008F1150008F1150008F115000808
:1000C000F1150008F1150008F1150008F1150008F8
:1000D000F11500081113000825130008F115000898
:1000E000F1150008F1150008F1150008F1150008D8
:1000F000F115000800000000F1150008F1150008D6
:100100000000000000000000F1150008F1150008D3
:10011000F1150008F1150008F115000800000000B5
:10012000F1150008000000000000000000000000C1
:0C01300000000000000000005FF808F173
:1001400010B5054C237833B9044B13B10448AFF311
:1001500000800123237010BDE0010020000000009A
:10016000546C000808B5034B1BB103490348AFF3B7
:10017000008008BD00000000E4010020546C00086D
:1001800010F8012B11F8013B012A28BF9A42F7D041
:10019000D01A7047034613F8012B002AFBD1181A16
:1001A0000138704781F0004102E000BF83F0004356
:1001B00030B54FEA41044FEA430594EA050F08BF02
:1001C00090EA020F1FBF54EA000C55EA020C7FEAC6
:1001D000645C7FEA655C00F0E2804FEA5454D4EB43
:1001E0005555B8BF6D420CDD2C4480EA020281EA0D
:1001F000030382EA000083EA010180EA020281EA45
:100200000303362D88BF30BD11F0004F4FEA013196
:100210004FF4801C4CEA113102D0404261EB4101A5
:1002200013F0004F4FEA03334CEA133302D052422B
:1002300063EB430394EA050F00F0A780A4F10104E7
:10024000D5F1200E0DDB02FA0EFC22FA05F2801821
:1002500041F1000103FA0EF2801843FA05F3594107
:100260000EE0A5F120050EF1200E012A03FA0EFC86
:1002700028BF4CF0020C43FA05F3C01851EBE371B0
:1002800001F0004507D54FF0000EDCF1000C7EEBCD
:1002900000006EEB0101B1F5801F1BD3B1F5001F0B
:1002A0000CD349085FEA30004FEA3C0C04F101042A
:1002B0004FEA445212F5800F80F09A80BCF1004F53
:1002C00008BF5FEA500C50F1000041EB045141EAD5
:1002D000050130BD5FEA4C0C404141EB010111F4D6
:1002E000801FA4F10104E9D191F0000F04BF014681
:1002F0000020B1FA81F308BF2033A3F10B03B3F15F
:1003000020020CDA0C3208DD02F1140CC2F10C02EE
:1003100001FA0CF021FA02F10CE002F11402D8BF4C
:10032000C2F1200C01FA02F120FA0CFCDCBF41EA18
:100330000C019040E41AA2BF01EB0451294330BDE7
:100340006FEA04041F3C1CDA0C340EDC04F11404C4
:10035000C4F1200220FA04F001FA02F340EA03009B
:1003600021FA04F345EA030130BDC4F10C04C4F1E1
:10037000200220FA02F001FA04F340EA03002946C1
:1003800030BD21FA04F0294630BD94F0000F83F40B
:10039000801306BF81F480110134013D4EE77FEAEE
:1003A000645C18BF7FEA655C29D094EA050F08BF3A
:1003B00090EA020F05D054EA000C04BF194610461B
:1003C00030BD91EA030F1EBF0021002030BD5FEA5F
:1003D000545C05D14000494128BF41F0004130BD87
:1003E00014F580043CBF01F5801130BD01F00045DB
:1003F00045F0FE4141F470014FF0000030BD7FEA4E
:10040000645C1ABF194610467FEA655C1CBF0B4648
:10041000024650EA013406BF52EA033591EA030F5F
:1004200041F4002130BD00BF90F0000F04BF002157
:10043000704730B54FF4806404F132044FF000058A
:100440004FF0000150E700BF90F0000F04BF002103
:10045000704730B54FF4806404F1320410F0004569
:1004600048BF40424FF000013EE700BF42004FEA64
:10047000E2014FEA31014FEA02701FBF12F07F43E1
:1004800093F07F4F81F06051704732F07F4208BF98
:10049000704793F07F4F04BF41F40021704730B59F
:1004A0004FF4607401F0004521F000411CE700BFEB
:1004B00050EA010208BF704730B54FF000050AE06E
:1004C00050EA010208BF704730B511F0004502D56F
:1004D000404261EB41014FF4806404F132045FEA71
:1004E000915C3FF4D8AE4FF003025FEADC0C18BF1A
:1004F00003325FEADC0C18BF033202EBDC02C2F10C
:10050000200300FA03FC20FA02F001FA03FE40EA9D
:100510000E0021FA02F11444BDE600BF70B54FF0A1
:10052000FF0C4CF4E06C1CEA11541DBF1CEA13557F
:1005300094EA0C0F95EA0C0F00F0DEF82C4481EAE7
:10054000030621EA4C5123EA4C5350EA013518BF07
:1005500052EA033541F4801143F4801338D0A0FBF4
:1005600002CE4FF00005E1FB02E506F00042E0FBA1
:1005700003E54FF00006E1FB03569CF0000F18BFA7
:100580004EF0010EA4F1FF04B6F5007F64F540744F
:1005900004D25FEA4E0E6D4146EB060642EAC621E2
:1005A00041EA55514FEAC52040EA5E504FEACE2E4F
:1005B000B4F1FD0C88BFBCF5E06F1ED8BEF1004F52
:1005C00008BF5FEA500E50F1000041EB045170BDCE
:1005D00006F0004646EA010140EA020081EA030112
:1005E000B4EB5C04C2BFD4EB0C0541EA045170BD0E
:1005F00041F480114FF0000E013C00F3AB8014F188
:10060000360FDEBF002001F0004170BDC4F10004D0
:10061000203C35DA0C341BDC04F11404C4F1200551
:1006200000FA05F320FA04F001FA05F240EA0200AC
:1006300001F0004221F0004110EBD37021FA04F6E2
:1006400042EB06015EEA430E08BF20EAD37070BD9C
:10065000C4F10C04C4F1200500FA04F320FA05F0FB
:1006600001FA04F240EA020001F0004110EBD370FD
:1006700041F100015EEA430E08BF20EAD37070BD6D
:10068000C4F1200500FA05F24EEA020E20FA04F346
:1006900001FA05F243EA020321FA04F001F00041F5
:1006A00021FA04F220EA020000EBD3705EEA430E66
:1006B00008BF20EAD37070BD94F0000F0FD101F095
:1006C0000046400041EB010111F4801F08BF013CCE
:1006D000F7D041EA060195F0000F18BF704703F00C
:1006E0000046520043EB030313F4801F08BF013D93
:1006F000F7D043EA0603704794EA0C0F0CEA13554F
:1007000018BF95EA0C0F0CD050EA410618BF52EA08
:100710004306D1D181EA030101F000414FF000000E
:1007200070BD50EA410606BF1046194652EA43061C
:1007300019D094EA0C0F02D150EA013613D195EA90
:100740000C0F05D152EA03361CBF104619460AD1D8
:1007500081EA030101F0004141F0FE4141F47001E2
:100760004FF0000070BD41F0FE4141F4780170BDD2
:1007700070B54FF0FF0C4CF4E06C1CEA11541DBF37
:100780001CEA135594EA0C0F95EA0C0F00F0A7F839
:10079000A4EB050481EA030E52EA03354FEA013166
:1007A00000F088804FEA03334FF0805545EA131379
:1007B00043EA12634FEA022245EA111545EA106541
:1007C0004FEA00260EF000419D4208BF964244F1D8
:1007D000FD0404F5407402D25B084FEA3202B61AF7
:1007E00065EB03055B084FEA32024FF480104FF4CB
:1007F000002CB6EB020E75EB030E22BFB61A75463F
:1008000040EA0C005B084FEA3202B6EB020E75EBD1
:10081000030E22BFB61A754640EA5C005B084FEA39
:100820003202B6EB020E75EB030E22BFB61A754606
:1008300040EA9C005B084FEA3202B6EB020E75EB11
:10084000030E22BFB61A754640EADC0055EA060ED2
:1008500018D04FEA051545EA16754FEA06164FEA15
:10086000C30343EA52734FEAC2025FEA1C1CC0D1C1
:1008700011F4801F0BD141EA00014FF000004FF04E
:10088000004CB6E711F4801F04BF01430020B4F10F
:10089000FD0C88BFBCF5E06F3FF6AFAEB5EB030CC7
:1008A00004BFB6EB020C5FEA500C50F1000041EBC4
:1008B000045170BD0EF0004E4EEA113114EB5C0491
:1008C000C2BFD4EB0C0541EA045170BD41F4801164
:1008D0004FF0000E013C90E645EA060E8DE60CEA6C
:1008E000135594EA0C0F08BF95EA0C0F3FF43BAF89
:1008F00094EA0C0F0AD150EA01347FF434AF95EA40
:100900000C0F7FF425AF104619462CE795EA0C0F23
:1009100006D152EA03353FF4FDAE1046194622E7F0
:1009200050EA410618BF52EA43067FF4C5AE50EACA
:1009300041047FF40DAF52EA43057FF4EBAE12E7BA
:100940004FF0FF3C06E000BF4FF0010C02E000BF9B
:100950004FF0010C4DF804CD4FEA410C7FEA6C5C7E
:100960004FEA430C18BF7FEA6C5C1BD001B050EA21
:10097000410C0CBF52EA430C91EA030F02BF90EA0C
:10098000020F0020704710F1000F91EA030F58BFCB
:10099000994208BF90422CBFD8176FEAE37040F02D
:1009A000010070474FEA410C7FEA6C5C02D150EACB
:1009B000013C07D14FEA430C7FEA6C5CD6D152EA86
:1009C000033CD3D05DF8040B704700BF844610464B
:1009D00062468C461946634600E000BF01B5FFF74A
:1009E000B7FF002848BF10F1000F01BD4DF808ED1A
:1009F000FFF7F4FF0CBF012000205DF808FB00BFEB
:100A00004DF808EDFFF7EAFF34BF012000205DF844
:100A100008FB00BF4DF808EDFFF7E0FF94BF012091
:100A200000205DF808FB00BF4DF808EDFFF7CEFF92
:100A300094BF012000205DF808FB00BF4DF808EDD1
:100A4000FFF7C4FF34BF012000205DF808FB00BFA2
:100A50004FEA410C7FEA6C5C02D150EA013C0AD1BA
:100A60004FEA430C7FEA6C5C02D152EA033C02D1AC
:100A70004FF0000070474FF0010070474FEA41020D
:100A800012F5001215D211D56FF47873B3EB6252E0
:100A900012D94FEAC12343F0004343EA505311F007
:100AA000004F23FA02F018BF404270474FF0000099
:100AB000704750EA013005D111F0004008BF6FF0D7
:100AC000004070474FF00000704700BF4A0011D24D
:100AD00012F5001211D20DD56FF47873B3EB625298
:100AE0000ED44FEAC12343F0004343EA505323FAA4
:100AF00002F070474FF00000704750EA013002D119
:100B00004FF0FF3070474FF0000070474FEA41024E
:100B1000B2F1E04324BFB3F5001CDCF1FE5C0DD95B
:100B200001F0004C4FEAC0024CEA5070B2F1004FA5
:100B300040EB830008BF20F00100704711F0804FA8
:100B400021D113F13872BCBF01F00040704741F46D
:100B500080114FEA5252C2F11802C2F1200C10FA71
:100B60000CF320FA02F018BF40F001004FEAC12355
:100B70004FEAD32303FA0CFC40EA0C0023FA02F3F9
:100B80004FEA4303CCE77FEA625307D150EA0133CF
:100B90001EBF4FF0FE4040F44000704701F000409F
:100BA00040F0FE4040F40000704700BF80B588B0C0
:100BB00000AF07F10C0300221A605A609A60DA60F5
:100BC0001A612E4BDB692D4A43F00403D3612B4B92
:100BD000DB6903F00403BB60BB68284BDB69274A71
:100BE00043F00103D361254BDB6903F001037B6014
:100BF0007B68224BDB69214A43F00203D3611F4B20
:100C0000DB6903F002033B603B6800224FF40051B4
:100C10001B4801F04BF80022C0211A4801F046F8A9
:100C20004FF40053FB6001233B6100237B610023F1
:100C3000BB6107F10C031946114800F0B9FE01230E
:100C4000FB60114B3B6100237B6107F10C031946EC
:100C50000E4800F0ADFEC023FB6001233B61002382
:100C60007B610023BB6107F10C031946054800F0C6
:100C70009FFE00BF2037BD4680BD00BF0038024048
:100C80000008024000040240000012100000024070
:100C900080B584B000AF786039600023FB607B686A
:100CA000002B02D0124A7B681360114B1B68002B8B
:100CB00001D1002317E00E4B1B68FB600C4B1B6837
:100CC0003968184603F0A6F80246094B1A60084B2B
:100CD0001B68002B06D0064B1B685A1C04490A608F
:100CE00000221A70FB6818461037BD4680BD00BF51
:100CF000FC01002080B582B000AF78600B46FB702D
:100D00007B6893F88430002B17D1FB78242B14D107
:100D100040212E4800F0E2FF7B6893F884301A46A9
:100D20007B681344FA781A717B6893F88430013336
:100D3000DAB27B6883F8842044E07B6893F88430DF
:100D4000002B3BD07B6893F884307E2B36D8FB7821
:100D50000D2B02D0FB780A2B1FD17B6893F88430CF
:100D60001A467B6813440D221A717B6893F884300D
:100D70000133DAB27B6883F884207B6893F884308F
:100D80001A467B6813440A221A71786800F020F82A
:100D90007B68002283F8842014E07B6893F8843019
:100DA0001A467B681344FA781A717B6893F884308A
:100DB0000133DAB27B6883F8842003E07B68002289
:100DC00083F8842000BF0837BD4680BD0004024080
:100DD0002DE9F0439FB00AAF78607B680433364951
:100DE0001846FFF755FFF8643449F86CFFF7C8F967
:100DF0000346002B03D1786800F06CF815E0304909
:100E0000F86CFFF7BDF90346002B0ED02D49F86CA6
:100E1000FFF7B6F90346002B03D1786800F0CEF84F
:100E200003E02949F86CFFF7ABF97B6893F885304C
:100E30009C467B6893F886309E467B6893F88730A3
:100E40001D467B6893F888301E467B6893F889308E
:100E50003B607B6893F88A3019467B6803F1900405
:100E6000D4E900347A68D2E92889786890F8C80013
:100E7000024607F108000892CDE90689CDE904345D
:100E800003913B68029301960095734662460F49B1
:100E900002F0A0FF034687F84B3097F84B309AB228
:100EA00007F1080319460A4801F0CDFC00BF54378A
:100EB000BD46BDE8F08300BF3C6D0008406D0008F2
:100EC000486D0008506D0008586D0008606D0008FE
:100ED0004003002080B584B000AF78603449002022
:100EE000FFF7D6FEF86032490020FFF7D1FEF86028
:100EF0002F490020FFF7CCFEF8602D490020FFF7B6
:100F0000C7FEF8602A490020FFF7C2FEF8602849B2
:100F10000020FFF7BDFEF86025490020FFF7B8FE6E
:100F2000F86023490020FFF7B3FEF8602049002055
:100F3000FFF7AEFEF860FB681B78002B33D0F86833
:100F400002F0D3F80346BB60BA681A4BA3FB021346
:100F50005B09642101FB03F3D31ADAB27B6883F8DF
:100F60008A20BB68134AA2FB03235A09114BA3FB37
:100F700002135B09642101FB03F3D31ADAB27B6825
:100F800083F88920BB680C4AA2FB03235A0B094B48
:100F9000A3FB02135B09642101FB03F3D31ADAB24A
:100FA0007B6883F8882000BF1037BD4680BD00BF36
:100FB0003C6D00081F85EB515917B7D190B585B02E
:100FC00000AF78605B490020FFF762FEF860FB68C5
:100FD0001B78002B33D0F86802F087F80346BB601B
:100FE000BA68554BA3FB02135B09642101FB03F3B1
:100FF000D31ADAB27B6883F88720BB684E4AA2FB1B
:1010000003235A094C4BA3FB02135B09642101FB28
:1010100003F3D31ADAB27B6883F88620BB68474AA9
:10102000A2FB03235A0B444BA3FB02135B0964216D
:1010300001FB03F3D31ADAB27B6883F885203D49BC
:101040000020FFF725FEF860FB681B78002B07D017
:10105000F86802F047F803460C467A68C2E924347F
:1010600034490020FFF714FEF860FB681B78002B62
:1010700004D0FB681A787B6883F898202D490020FB
:10108000FFF706FEF860FB681B78002B07D0F868B6
:1010900002F028F803460C467A68C2E9283425494C
:1010A0000020FFF7F5FDF860FB681B78002B04D0EB
:1010B000FB681A787B6883F8A8201E490020FFF798
:1010C000E7FDF860FB681B78002B07D0F86802F09A
:1010D0000CF80346DAB27B6883F8C9201549002072
:1010E000FFF7D6FDF860FB681B78002B07D0F86887
:1010F00001F0FBFF0346DAB27B6883F8C8200D4994
:101100000020FFF7C5FDF8600A490020FFF7C0FD89
:10111000F860FB681B78002B07D0F86801F0E2FF4D
:1011200003460C467A68C2E92C3400BF1437BD462A
:1011300090BD00BF3C6D00081F85EB515917B7D11A
:1011400080B500AF00F055FA00F018F8FFF72EFD5B
:1011500000F052F900F07AF901224021064800F02F
:10116000A5FD4FF47A7000F0B3FA00224021024846
:1011700000F09CFDFEE700BF0004024080B592B085
:1011800000AF07F1140334220021184601F0E7FFF5
:101190003B4600221A605A609A60DA601A611D4B61
:1011A0001B6823F4C0531B4A43F4006313600223FB
:1011B0007B6101233B6210237B620223BB6300231C
:1011C000FB634FF480233B644FF480037B6407F19F
:1011D0001403184600F09CFD0346002B01D000F0DC
:1011E00039F80F233B6003237B600023BB6000239F
:1011F000FB6000233B613B460121184601F0B8F833
:101200000346002B01D000F025F800BF4837BD464B
:1012100080BD00BF0070004080B582B000AF786034
:101220007B68094A93420AD1084B1B781946084843
:10123000FFF760FD01220549034801F048FB00BFAC
:101240000837BD4680BD00BF00030020100200200B
:101250001802002080B400AF00BFBD4680BC7047BC
:1012600080B485B000AF144B5B6A134A43F000436F
:101270005362114B5B6A03F00043FB60FB680E4B4B
:101280001B6A0D4A43F0010313620B4B1B6A03F008
:101290000103BB60BB68084B5B6A074A43F080539D
:1012A0005362054B5B6A03F080537B607B6800BF31
:1012B0001437BD4680BC70470038024080B400AF90
:1012C00000BFBD4680BC704780B400AFFEE780B46D
:1012D00000AFFEE780B400AFFEE780B400AFFEE7EA
:1012E00080B400AF00BFBD4680BC704780B400AF83
:1012F00000BFBD4680BC704780B400AF00BFBD4694
:1013000080BC704780B500AF00F0C6F900BF80BD5B
:1013100080B500AF024801F02FFB00BF80BD00BFC9
:101320000003002080B500AF024801F025FB00BF9C
:1013300080BD00BF4003002080B584B000AF78605E
:10134000114B1B68002B02D10F4B104A1A600E4B39
:101350001B68FB600C4B1A687B6813446A46934217
:1013600007D901F0C7FE02460C2313604FF0FF338C
:1013700006E0054B1A687B681344034A1360FB6858
:1013800018461037BD4680BD0002002088030020AB
:1013900080B400AF154B1B68144A43F4807313608C
:1013A000124B9A681149124B13408B600F4B1B680C
:1013B0000E4A23F0885323F0011313600B4B1B6874
:1013C0000A4A23F480231360084B9B68074A23F4DE
:1013D0007D039360054B0022DA60064B4FF00062FC
:1013E0009A6000BFBD4680BC704700BF0038024015
:1013F0000CC0FF8800ED00E080B500AF114B124A31
:101400001A60104B4FF461425A600E4B00229A60F2
:101410000C4B0022DA600B4B00221A61094B0C22A4
:101420005A61084B00229A61064B0022DA61054896
:1014300001F0BCF90346002B01D0FFF70BFF00BF02
:1014400080BD00BF000300200038014080B500AF20
:10145000114B124A1A60104B4FF4E1325A600E4B96
:1014600000229A600C4B0022DA600B4B00221A61BA
:10147000094B0C225A61084B00229A61064B00224C
:10148000DA61054801F092F90346002B01D0FFF71D
:10149000E1FE00BF80BD00BF4003002000440040CB
:1014A00080B58CB000AF786007F11C0300221A6091
:1014B0005A609A60DA601A617B681B68364A934208
:1014C00031D1364B1B6A354A43F480431362334BA8
:1014D0001B6A03F48043BB61BB69304BDB692F4A55
:1014E00043F00103D3612D4BDB6903F001037B6102
:1014F0007B694FF4C063FB6102233B6201237B6283
:101500000323BB620723FB6207F11C03194624482F
:1015100000F04EFA00220021252000F0D2F925200B
:1015200000F0EBF934E07B681B681E4A93422FD130
:101530001A4B5B6A194A43F400335362174B5B6AD8
:1015400003F400333B613B69144BDB69134A43F0FE
:101550000103D361114BDB6903F00103FB60FB68FE
:101560000C23FB6102233B6201237B620323BB62EA
:101570000723FB6207F11C031946094800F018FA1B
:1015800000220021262000F09CF9262000F0B5F969
:1015900000BF3037BD4680BD0038014000380240F2
:1015A0000000024000440040002103E00B4B5B5868
:1015B000435004310A480B4B42189A42F6D30A4A68
:1015C00002E0002342F8043B084B9A42F9D3FFF7AC
:1015D000DFFE01F095FDFFF7B3FD70477070000866
:1015E00000000020DC010020E00100208803002032
:1015F000FEE780B582B000AF0023FB71032000F04E
:1016000055F9002000F00EF80346002B02D001230C
:10161000FB7101E0FFF724FEFB7918460837BD4651
:1016200080BD000080B584B000AF78600023FB73FC
:10163000164B1B68002B22D0154B1A68134B1B68E6
:101640004FF47A71B1FBF3F3B2FBF3F3184600F0F9
:1016500062F90346002B0FD17B680F2B09D80022BB
:1016600079684FF0FF3000F02CF90A4A7B6813606C
:1016700007E00123FB7304E00123FB7301E0012376
:10168000FB73FB7B18461037BD4680BD0800002069
:10169000000000200400002080B400AF054B1A6851
:1016A000054B1B681344034A136000BFBD4680BC52
:1016B000704700BF800300200800002080B400AF06
:1016C000024B1B681846BD4680BC70478003002053
:1016D00080B584B000AF7860FFF7F0FFB8607B683A
:1016E000FB60FB68B3F1FF3F04D0094B1B68FA684D
:1016F0001344FB6000BFFFF7E1FF0246BB68D31A4B
:10170000FA689A42F7D800BF1037BD4680BD00BFC7
:101710000800002080B485B000AF78607B6803F0DB
:101720000703FB600C4BDB68BB60BA684FF6FF0336
:101730001340BB60FB681A02BB68134343F0BF63EE
:1017400043F40033BB60044ABB68D36000BF143766
:10175000BD4680BC704700BF00ED00E080B400AF24
:10176000044BDB681B0A03F007031846BD4680BC28
:10177000704700BF00ED00E080B483B000AF0346C7
:10178000FB7197F90730002B0BDBFB7903F01F028D
:10179000064997F907305B09012000FA02F241F887
:1017A000232000BF0C37BD4680BC704700E100E03D
:1017B00080B483B000AF03463960FB7197F90730FE
:1017C000002B0ADB3B68DAB20C4997F907301201AB
:1017D000D2B20B4483F800230AE03B68DAB208492E
:1017E000FB7903F00F03043B1201D2B20B441A76CB
:1017F00000BF0C37BD4680BC704700BF00E100E071
:1018000000ED00E080B489B000AFF860B9607A60A4
:10181000FB6803F00703FB61FB69C3F10703042BBB
:1018200028BF0423BB61FB690433062B02D9FB6983
:10183000033B00E000237B614FF0FF32BB6902FAFB
:1018400003F3DA43BB681A407B699A404FF0FF31DB
:101850007B6901FA03F3D9437B680B4013431846B5
:101860002437BD4680BC704780B582B000AF786039
:101870007B68013BB3F1807F01D301230FE00A4A6B
:101880007B68013B53600F214FF0FF30FFF790FF63
:10189000054B00229A60044B07221A600023184669
:1018A0000837BD4680BD00BF10E000E080B582B0C3
:1018B00000AF78607868FFF72DFF00BF0837BD469E
:1018C00080BD80B586B000AF0346B9607A60FB7317
:1018D00000237B61FFF742FF78617A68B968786915
:1018E000FFF790FF024697F90F3011461846FFF7B1
:1018F0005FFF00BF1837BD4680BD80B582B000AF26
:101900000346FB7197F907301846FFF735FF00BF14
:101910000837BD4680BD80B582B000AF786078687A
:10192000FFF7A2FF034618460837BD4680BD80B5C5
:1019300084B000AF78600023FB737B6893F821309C
:10194000DBB2022B05D07B6804229A630123FB7370
:1019500029E07B681B681A687B681B6822F00E020E
:101960001A607B681B681A687B681B6822F001029A
:101970001A607B681B6C03F01C027B68DB6B012127
:1019800001FA02F25A607B68012283F821207B6809
:10199000002283F820207B685B6B002B03D07B68E0
:1019A0005B6B78689847FB7B18461037BD4680BD57
:1019B00080B487B000AF7860396000237B6100237A
:1019C000FB6000233B6154E13B681A6801217B699D
:1019D00001FA03F31340FB60FB68002B00F0468123
:1019E0003B685B68022B03D03B685B68122B23D1FA
:1019F0007B69DA087B68083253F822303B617B69E7
:101A000003F007039B000F2202FA03F3DB433A695A
:101A100013403B613B681A697B6903F007039B0035
:101A200002FA03F33A6913433B617B69DA087B6886
:101A30000832396943F822107B681B683B617B6977
:101A40005B00032202FA03F3DB433A6913403B6174
:101A50003B685B6803F003027B695B0002FA03F3F7
:101A60003A6913433B617B683A691A603B685B687B
:101A7000012B0BD03B685B68022B07D03B685B688F
:101A8000112B03D03B685B68122B30D17B689B68BD
:101A90003B617B695B00032202FA03F3DB433A6993
:101AA00013403B613B68DA687B695B0002FA03F331
:101AB0003A6913433B617B683A699A607B685B686B
:101AC0003B6101227B6902FA03F3DB433A6913406D
:101AD0003B613B685B681B0903F001027B6902FA0A
:101AE00003F33A6913433B617B683A695A607B6848
:101AF000DB683B617B695B00032202FA03F3DB4393
:101B00003A6913403B613B689A687B695B0002FA63
:101B100003F33A6913433B617B683A69DA603B68D7
:101B20005B6803F08053002B00F0A080574B1B6ACA
:101B3000564A43F001031362544B1B6A03F001033E
:101B4000BB60BB68524A7B699B08023352F8233062
:101B50003B617B6903F003039B000F2202FA03F34E
:101B6000DB433A6913403B617B684A4A934219D090
:101B70007B68494A934213D07B68484A93420DD010
:101B80007B68474A934207D07B68464A934201D11B
:101B9000042308E0052306E0032304E0022302E017
:101BA000012300E000237A6902F0030292009340CF
:101BB0003A6913433B6136497B699B0802333A69B2
:101BC00041F82320384B1B683B61FB68DB433A69D3
:101BD00013403B613B685B6803F48033002B03D008
:101BE0003A69FB6813433B612F4A3B6913602E4BF4
:101BF0005B683B61FB68DB433A6913403B613B68D0
:101C00005B6803F40033002B03D03A69FB6813438D
:101C10003B61254A3B695360234B9B683B61FB68F2
:101C2000DB433A6913403B613B685B6803F4801314
:101C3000002B03D03A69FB6813433B611A4A3B69A6
:101C40009360194BDB683B61FB68DB433A691340E7
:101C50003B613B685B6803F40013002B03D03A69D7
:101C6000FB6813433B61104A3B69D3607B690133D6
:101C70007B613B681A687B6922FA03F3002B7FF4CF
:101C8000A3AE00BF1C37BD4680BC70470038024081
:101C90000000014000000240000402400008024031
:101CA000000C0240001002400004014080B483B0E8
:101CB00000AF78600B467B8013467B707B78002BEF
:101CC00003D07A887B689A6103E07B881A047B687A
:101CD0009A6100BF0C37BD4680BC704780B483B0AA
:101CE00000AF78600B467B807B685A697B88134025
:101CF000002B04D07B881A047B689A6102E07A8802
:101D00007B689A6100BF0C37BD4680BC70470000FD
:101D100080B588B000AF78607B68002B01D10123CB
:101D20001DE3944B9B6803F00C03BB61914B9B68D4
:101D300003F480337B617B681B6803F00103002B95
:101D40007BD0BB69082B06D0BB690C2B0FD17B69FC
:101D5000B3F5803F0BD1874B1B6803F40033002B96
:101D60006AD07B685B68002B66D10123F7E27B6851
:101D70005B68012B06D17F4B1B687E4A43F480339E
:101D800013602DE07B685B68002B0CD1794B1B68DE
:101D9000784A23F480331360764B1B68754A23F42A
:101DA000802313601CE07B685B68052B0CD1714BB2
:101DB0001B68704A43F4802313606E4B1B686D4AA6
:101DC00043F4803313600BE06A4B1B68694A23F4C9
:101DD00080331360674B1B68664A23F480231360CB
:101DE0007B685B68002B13D0FFF768FC386108E064
:101DF000FFF764FC02463B69D31A642B01D9032325
:101E0000ADE25C4B1B6803F40033002BF0D014E010
:101E1000FFF754FC386108E0FFF750FC02463B69CD
:101E2000D31A642B01D9032399E2524B1B6803F4A4
:101E30000033002BF0D100E000BF7B681B6803F08B
:101E40000203002B5AD0BB69042B05D0BB690C2BB5
:101E500019D17B69002B16D1464B1B6803F0020396
:101E6000002B05D07B68DB68012B01D0012376E2D3
:101E7000404B5B6823F4F8527B681B691B023D49A9
:101E800013434B603AE07B68DB68002B20D03A4B71
:101E900001221A60FFF712FC386108E0FFF70EFC20
:101EA00002463B69D31A022B01D9032357E2314B77
:101EB0001B6803F00203002BF0D02E4B5B6823F469
:101EC000F8527B681B691B022A4913434B6015E0DB
:101ED000294B00221A60FFF7F1FB386108E0FFF799
:101EE000EDFB02463B69D31A022B01D9032336E2EC
:101EF000204B1B6803F00203002BF0D17B681B68AA
:101F000003F01003002B00F0B880BB69002B70D1E8
:101F1000184B1B6803F40073002B05D07B689B698A
:101F2000002B01D101231AE27B681A6A114B5B680E
:101F300003F460439A4221D97B681B6A184600F07B
:101F4000D5FB0346002B01D0012308E2094B5B6857
:101F500023F460427B681B6A064913434B60054BC0
:101F60005B6823F07F427B68DB691B0601491343F2
:101F70004B6020E00038024000004742A44B5B6801
:101F800023F460427B681B6AA14913434B60A04B5A
:101F90005B6823F07F427B68DB691B069C49134327
:101FA0004B607B681B6A184600F0A0FB0346002BC1
:101FB00001D00123D3E17B681B6A5B0B01334FF433
:101FC000004202FA03F3924A9268120902F00F02E9
:101FD00090498A5CD340904A1360904B1B68184626
:101FE000FFF720FB0346FB73FB7B002B45D0FB7BFD
:101FF000B5E17B689B69002B29D0894B01221A60CF
:10200000FFF75CFB386108E0FFF758FB02463B69CD
:10201000D31A022B01D90323A1E17D4B1B6803F4E2
:102020000073002BF0D07A4B5B6823F460427B682E
:102030001B6A774913434B60754B5B6823F07F4203
:102040007B68DB691B06724913434B6015E0744BD8
:1020500000221A60FFF732FB386108E0FFF72EFB21
:1020600002463B69D31A022B01D9032377E1684B5F
:102070001B6803F40073002BF0D17B681B6803F02E
:102080000803002B30D07B685B69002B16D0654BB2
:1020900001221A60FFF712FB386108E0FFF70EFB20
:1020A00002463B69D31A022B01D9032357E1584B4F
:1020B0005B6B03F00203002BF0D015E0594B0022BC
:1020C0001A60FFF7FBFA386108E0FFF7F7FA0246FB
:1020D0003B69D31A022B01D9032340E14C4B5B6BC4
:1020E00003F00203002BF0D17B681B6803F00403AC
:1020F000002B00F0B5800023FB77454B5B6A03F0B3
:102100008053002B0DD1424B5B6A414A43F0805310
:1021100053623F4B5B6A03F08053BB60BB68012393
:10212000FB77414B1B6803F48073002B18D13E4BA7
:102130001B683D4A43F480731360FFF7BFFA3861B0
:1021400008E0FFF7BBFA02463B69D31A642B01D9BA
:10215000032304E1344B1B6803F48073002BF0D09D
:102160007B689B68012B06D1294B5B6B284A43F4A3
:10217000807353632DE07B689B68002B0CD1244B4C
:102180005B6B234A23F480735363214B5B6B204AC0
:1021900023F4806353631CE07B689B68052B0CD1A0
:1021A0001B4B5B6B1A4A43F480635363184B5B6BA6
:1021B000174A43F4807353630BE0154B5B6B144A6F
:1021C00023F480735363124B5B6B114A23F48063D7
:1021D00053637B689B68002B15D0FFF76FFA38615B
:1021E0000AE0FFF76BFA02463B69D31A41F28832E4
:1021F000934201D90323B2E0054B5B6B03F40073F8
:10220000002BEED023E0FFF759FA386119E000BF48
:10221000003802409C6D00080000002004000020EF
:10222000200047428006474200700040FFF746FA10
:1022300002463B69D31A41F28832934201D9032303
:102240008DE0494B5B6B03F40073002BEED1FB7FF9
:10225000012B05D1444B5B6A434A23F08053536200
:102260007B685B6A002B79D0BB690C2B56D07B68EE
:102270005B6A022B3BD13D4B00221A60FFF71EFA2E
:10228000386108E0FFF71AFA02463B69D31A022BBD
:1022900001D9032363E0344B1B6803F00073002B68
:1022A000F0D1314B9B6823F47D027B68996A7B688F
:1022B000DB6A19437B681B6B0B432B4913438B6011
:1022C0002A4B01221A60FFF7F9F9386108E0FFF79D
:1022D000F5F902463B69D31A022B01D903233EE0EC
:1022E000214B1B6803F00073002BF0D036E01F4B2E
:1022F00000221A60FFF7E2F9386108E0FFF7DEF923
:1023000002463B69D31A022B01D9032327E0164B5F
:102310001B6803F00073002BF0D11FE07B685B6A41
:10232000012B01D101231AE00F4B9B687B617B6974
:1023300003F480327B689B6A9A420DD17B6903F477
:1023400070127B68DB6A9A4206D17B6903F4400213
:102350007B681B6B9A4201D0012300E000231846E2
:102360002037BD4680BD00BF0038024060004742B4
:1023700080B584B000AF786039607B68002B01D1F4
:1023800001231AE18F4B1B6803F001033A689A425C
:1023900019D93B68012B05D18A4B1B68894A43F048
:1023A00004031360874B1B6823F0010285493B68D7
:1023B00013430B60834B1B6803F001033A689A4296
:1023C00001D00123F9E07B681B6803F00203002BB6
:1023D00008D07D4B9B6823F0F0027B689B687A49AC
:1023E00013438B607B681B6803F00103002B00F034
:1023F0008E807B685B68022B07D1734B1B6803F4EC
:102400000033002B21D10123D7E07B685B68032BCD
:1024100007D16D4B1B6803F00073002B15D101230E
:10242000CBE07B685B68012B07D1674B1B6803F02F
:102430000203002B09D10123BFE0634B1B6803F4A7
:102440000073002B01D10123B7E05F4B9B6823F0A1
:1024500003027B685B685C4913438B60FFF72EF9CE
:10246000F8607B685B68022B12D10AE0FFF726F95F
:102470000246FB68D31A41F28832934201D9032302
:102480009BE0514B9B6803F00C03082BEED13EE020
:102490007B685B68032B12D10AE0FFF70FF9024655
:1024A000FB68D31A41F28832934201D9032384E0B6
:1024B000454B9B6803F00C030C2BEED127E07B68A7
:1024C0005B68012B1DD10AE0FFF7F8F80246FB68B4
:1024D000D31A41F28832934201D903236DE03A4B7B
:1024E0009B6803F00C03042BEED110E0FFF7E6F835
:1024F0000246FB68D31A41F28832934201D9032382
:102500005BE0314B9B6803F00C03002BEED12D4BAD
:102510001B6803F001033A689A4219D23B68012B09
:1025200005D1284B1B68274A43F004031360254B51
:102530001B6823F0010223493B6813430B60214BC6
:102540001B6803F001033A689A4201D0012334E08A
:102550007B681B6803F00403002B08D01A4B9B68B0
:1025600023F4E0627B68DB68174913438B607B6868
:102570001B6803F00803002B09D0134B9B6823F45E
:1025800060527B681B69DB000F4913438B6000F0CE
:1025900023F801460C4B9B681B0903F00F030B4A01
:1025A000D35C21FA03F30A4A13600A4B1B681846EE
:1025B000FFF738F80346FB72FB7A18461037BD4622
:1025C00080BD00BF003C0240003802409C6D000806
:1025D000000000200400002080B487B000AF264B2C
:1025E0009B68FB60FB6803F00C03082B06D00C2BE8
:1025F00007D0042B2CD1214B3B6137E0204B3B61B2
:1026000034E0FB689B0C03F00F031E4AD35CBB60F5
:10261000FB689B0D03F0030301337B60164B9B6843
:1026200003F48033002B08D0BB68154A02FB03F289
:102630007B68B2FBF3F37B6107E0BB680F4A02FBE8
:1026400003F27B68B2FBF3F37B617B693B610DE0D6
:10265000094B5B685B0B03F007033B603B6801338E
:102660004FF4004202FA03F33B6100BF3B69184696
:102670001C37BD4680BC7047003802400024F4007F
:1026800000127A00906D000880B400AF024B1B6806
:102690001846BD4680BC70470000002080B500AFE2
:1026A000FFF7F2FF0146054B9B681B0A03F0070387
:1026B000034AD35C21FA03F3184680BD0038024078
:1026C000AC6D000880B500AFFFF7DEFF0146054B9B
:1026D0009B68DB0A03F00703034AD35C21FA03F388
:1026E000184680BD00380240AC6D000880B487B049
:1026F00000AF786000233B61294B9B6803F0F00337
:10270000002B2CD1264B5B6A03F08053002B05D0A5
:10271000244B1B6803F4C0537B6116E0204B5B6ABB
:102720001F4A43F0805353621D4B5B6A03F0805392
:10273000FB60FB681B4B1B6803F4C0537B61184BA9
:102740005B6A174A23F0805353627B69B3F5C05F1D
:1027500005D17B68B3F5404F01D101233B613B6953
:10276000012B05D1104B1B680F4A43F00403136083
:102770000D4B1B6823F001020B493B6913430B60AF
:10278000094B1B6803F001033A699A4201D0012307
:1027900000E0002318461C37BD4680BC704700BFD0
:1027A0000038024000700040003C024080B582B01A
:1027B00000AF78607B68002B01D101233FE07B688C
:1027C00093F83930DBB2002B06D17B68002283F806
:1027D00038207868FEF764FE7B68242283F839206D
:1027E0007B681B68DA687B681B6822F40052DA6039
:1027F000786800F0EFFA7B681B681A697B681B68D1
:1028000022F490421A617B681B685A697B681B68D6
:1028100022F02A025A617B681B68DA687B681B68B1
:1028200042F40052DA607B680022DA637B6820227F
:1028300083F839207B68202283F83A200023184649
:102840000837BD4680BD80B485B000AFF860B96080
:102850001346FB80FB6893F83930DBB2202B30D174
:10286000BB68002B02D0FB88002B01D1012329E09B
:10287000FB6893F83830012B01D1022322E0FB687A
:10288000012283F83820FB68BA681A62FB68FA886C
:102890009A84FB68FA88DA84FB680022DA63FB68B2
:1028A000212283F83920FB68002283F83820FB6856
:1028B0001B68DA68FB681B6842F08002DA6000235C
:1028C00000E0022318461437BD4680BC704780B430
:1028D00085B000AFF860B9601346FB80FB6893F8E1
:1028E0003A30DBB2202B40D1BB68002B02D0FB88F2
:1028F000002B01D1012339E0FB6893F83830012B1C
:1029000001D1022332E0FB68012283F83820FB6802
:10291000BA689A62FB68FA889A85FB68FA88DA8551
:10292000FB680022DA63FB68222283F83A20FB6806
:10293000002283F83820FB681B68DA68FB681B6894
:1029400042F48072DA60FB681B685A69FB681B6896
:1029500042F001025A61FB681B68DA68FB681B6879
:1029600042F02002DA60002300E002231846143708
:10297000BD4680BC7047000080B588B000AF78606D
:102980007B681B681B68FB617B681B68DB68BB613D
:102990007B681B685B697B6100233B610023FB60F4
:1029A000FB6903F00F033B613B69002B0DD1FB6911
:1029B00003F02003002B08D0BB6903F02003002B99
:1029C00003D0786800F084F9CCE03B69002B00F07C
:1029D000AB807B6903F00103002B05D1BB6903F4D5
:1029E0009073002B00F0A080FB6903F00103002B23
:1029F0000AD0BB6903F48073002B05D07B68DB6BC6
:102A000043F001027B68DA63FB6903F00403002BE7
:102A10000AD07B6903F00103002B05D07B68DB6BD8
:102A200043F002027B68DA63FB6903F00203002BC8
:102A30000AD07B6903F00103002B05D07B68DB6BB8
:102A400043F004027B68DA63FB6903F00803002BA0
:102A50000AD07B6903F00103002B05D07B68DB6B98
:102A600043F008027B68DA637B68DB6B002B78D06D
:102A7000FB6903F02003002B07D0BB6903F02003A0
:102A8000002B02D0786800F023F97B681B685B6933
:102A900003F04003402B0CBF01230023DBB2FB609B
:102AA0007B68DB6B03F00803002B02D1FB68002B73
:102AB00031D0786800F06EF87B681B685B6903F0C2
:102AC0004003402B23D17B681B685A697B681B68D5
:102AD00022F040025A617B685B6B002B13D07B684D
:102AE0005B6B224A5A637B685B6B1846FEF71FFFDD
:102AF0000346002B16D07B685B6B5B6B7A68526B6E
:102B0000104698470EE0786800F03BF80AE07868D5
:102B100000F037F806E0786800F033F87B680022B0
:102B2000DA631EE000BF1CE0FB6903F08003002BAA
:102B300008D0BB6903F08003002B03D0786800F055
:102B40005AF80FE0FB6903F04003002B0AD0BB6981
:102B500003F04003002B05D0786800F0A1F800BF17
:102B600000E000BF2037BD4680BD00BFCF2B00086E
:102B700080B483B000AF786000BF0C37BD4680BC26
:102B8000704780B483B000AF786000BF0C37BD469B
:102B900080BC704780B483B000AF78607B681B68EE
:102BA000DA687B681B6822F49072DA607B681B68C5
:102BB0005A697B681B6822F001025A617B682022F7
:102BC00083F83A2000BF0C37BD4680BC704780B503
:102BD00084B000AF78607B685B6AFB60FB680022B2
:102BE000DA85FB680022DA84F868FFF7CAFF00BFC5
:102BF0001037BD4680BD80B485B000AF78607B687B
:102C000093F83930DBB2212B44D17B689B68B3F554
:102C1000805F1AD17B681B6AFB60FB681B881A46C1
:102C20007B681B68C2F308025A607B681B69002B33
:102C300005D17B681B6A9A1C7B681A620EE07B6870
:102C40001B6A5A1C7B681A6208E07B681B6A591C65
:102C50007A6811621A787B681B685A607B68DB8C23
:102C60009BB2013B9BB27A681946D184002B0FD1ED
:102C70007B681B68DA687B681B6822F08002DA6078
:102C80007B681B68DA687B681B6842F04002DA6088
:102C9000002300E0022318461437BD4680BC70476D
:102CA00080B582B000AF78607B681B68DA687B68AB
:102CB0001B6822F04002DA607B68202283F839200A
:102CC0007868FFF755FF002318460837BD4680BDDA
:102CD00080B584B000AF78607B6893F83A30DBB29F
:102CE000222B71D17B689B68B3F5805F23D17B6811
:102CF0009B6AFB607B681B69002B0ED17B681B689D
:102D00005B689BB2C3F308039AB2FB681A807B68C6
:102D10009B6A9A1C7B689A6229E07B681B685B68E7
:102D20009BB2DBB29AB2FB681A807B689B6A5A1C22
:102D30007B689A621BE07B681B69002B0AD17B6869
:102D40001B6858687B689B6A591C7A689162C2B29A
:102D50001A700CE07B681B685B68DAB27B689B6A60
:102D6000581C7968886202F07F02D2B21A707B68C0
:102D7000DB8D9BB2013B9BB27A681946D185002B53
:102D800020D17B681B68DA687B681B6822F0200210
:102D9000DA607B681B68DA687B681B6822F48072E3
:102DA000DA607B681B685A697B681B6822F0010245
:102DB0005A617B68202283F83A207868FEF72CFA63
:102DC000002302E0002300E0022318461037BD462E
:102DD00080BD000080B584B000AF78607B681B6860
:102DE0001B6923F440517B68DA687B681B680A43DF
:102DF0001A617B689A687B681B691A437B685B6908
:102E00001A437B68DB691343FB607B681B68DB68E4
:102E100023F4164323F00C037A681268F9680B4315
:102E2000D3607B681B685B6923F440717B689A6997
:102E30007B681B680A435A617B68DB69B3F5004F06
:102E400040F0A5807B681B68A44A93424FD1FFF7EE
:102E500039FCB860BA6813469B0013449A001A44C0
:102E60007B685B685B00B2FBF3F39D4AA2FB032324
:102E70005B091901BA6813469B0013449A001A446F
:102E80007B685B685B00B2FBF3F2954BA3FB02032C
:102E90005B09642000FB03F3D31ADB003233904A52
:102EA000A2FB03235B095B0003F4F8731944BA68BF
:102EB00013469B0013449A001A447B685B685B00CE
:102EC000B2FBF3F2864BA3FB02035B09642000FB19
:102ED00003F3D31ADB003233814AA2FB03235B09DD
:102EE00003F007027B681B680A449A60F1E0FFF771
:102EF000D5FBB860BA6813469B0013449A001A4485
:102F00007B685B685B00B2FBF3F3754AA2FB0323AB
:102F10005B091901BA6813469B0013449A001A44CE
:102F20007B685B685B00B2FBF3F26D4BA3FB0203B3
:102F30005B09642000FB03F3D31ADB003233684AD9
:102F4000A2FB03235B095B0003F4F8731944BA681E
:102F500013469B0013449A001A447B685B685B002D
:102F6000B2FBF3F25E4BA3FB02035B09642000FBA0
:102F700003F3D31ADB003233594AA2FB03235B0964
:102F800003F007027B681B680A449A60A1E07B6833
:102F90001B68524A93424ED1FFF794FBB860BA685F
:102FA00013469B0013449A001A447B685B689B009D
:102FB000B2FBF3F34A4AA2FB03235B091901BA6887
:102FC00013469B0013449A001A447B685B689B007D
:102FD000B2FBF3F2424BA3FB02035B09642000FB4C
:102FE00003F3D31A1B0132333D4AA2FB03235B09CF
:102FF00003F0F0031944BA6813469B0013449A0087
:103000001A447B685B689B00B2FBF3F2344BA3FB72
:1030100002035B09642000FB03F3D31A1B01323364
:103020002F4AA2FB03235B0903F00F027B681B6896
:103030000A449A604DE0FFF731FBB860BA68134666
:103040009B0013449A001A447B685B689B00B2FBA8
:10305000F3F3234AA2FB03235B091901BA68134661
:103060009B0013449A001A447B685B689B00B2FB88
:10307000F3F21B4BA3FB02035B09642000FB03F389
:10308000D31A1B013233164AA2FB03235B0903F058
:10309000F0031944BA6813469B0013449A001A447B
:1030A0007B685B689B00B2FBF3F20D4BA3FB020352
:1030B0005B09642000FB03F3D31A1B013233084A77
:1030C000A2FB03235B0903F00F027B681B680A4421
:1030D0009A6000BF1037BD4680BD00BF0038014078
:1030E0001F85EB51002101F0E3BC0A22002101F011
:1030F0007FBD0000014B1868704700BF0C00002026
:1031000070B500250C4E0D4CA41BA410A54209D18E
:1031100003F0A0FD00250A4E0A4CA41BA410A542F2
:1031200005D170BD56F8253098470135EEE756F8C1
:10313000253098470135F2E768700008687000088C
:10314000687000086C70000810B5431E0A44914274
:1031500000D110BD11F8014B03F8014FF7E703460A
:103160000244934200D1704703F8011BF9E7002B9A
:103170002DE9F0471E46BBBF03F100431E46002366
:103180002D2388B0149FDDE9121A27F02007462F5F
:103190001446109D0B7004D0452F00D10135022339
:1031A00000E0032307AA049206AACDE902A2CDE912
:1031B00000352246334601F0BFFD472F804602D13D
:1031C000119BDB0726D5462F08EB050911D198F88E
:1031D0000030302B0AD10022002320463146FDF773
:1031E00005FC18B9C5F10105CAF80050DAF800303D
:1031F00099440022002320463146FDF7F7FB38B9F9
:103200003022079B4B4505D2591C07911A70F8E7ED
:10321000CDF81C904046079B159AA3EB080313605A
:1032200008B0BDE8F087F7B50029B4BF2D232B23E4
:103230000446B8BF4942092904F8022B437021DD36
:103240000DF107031F460A2691FBF6F506FB151143
:10325000092D01F1300103F8011C03F1FF32294669
:1032600009DC3031023B02F8011CBB42224604D388
:10327000101A03B0F0BD1346E6E713F8012B04F86B
:10328000012BF2E7302319448370021DC170EFE770
:103290002DE9F04F91B00C461A9F93461E46054605
:1032A00002F02CFE036818460993FCF773FF002315
:1032B0000E933B680A90073323F0070303F10802DB
:1032C00094F81880D4F800A03A60D3E90023C4E948
:1032D0001223D4E9127929F000430B934FF0FF3207
:1032E000A64B38460B99FDF7B3FB68BB4FF0FF3296
:1032F000A24B38460B99FDF78DFB28BB002200231B
:1033000038464946FDF77CFB10B12D2384F8433045
:103310009B4F9C4BB8F1470F98BF1F4603234FF0BC
:10332000000923612AF00403236000965B460FAA7C
:103330002146284600F0E2F9013040F090804FF03D
:10334000FF3011B0BDE8F08F3A464B46384649464B
:10335000FDF77EFB10B18C4F8C4BDBE763684AF4C2
:103360008062591C0DA80EA940D1062363604FF05E
:10337000000C0DF13303CDE9012363682260CDE930
:10338000030800933A464B46CDE9051C2846FFF753
:10339000EEFE08F0DF03472B074609D10D9BD81C32
:1033A00002DB6268934247DDA8F102085FFA88F801
:1033B000B8F1650F0D9924D80139424604F1500047
:1033C0000D91FFF730FF0E9A81461318012A2361F1
:1033D00002DC2268D10701D5013323619DF8333027
:1033E000002BA2D02D2384F843309EE7B8F1670F5D
:1033F00000F06E81B8F1470FB9D1002BB7D101238E
:10340000B4E7B8F1660F19D1002963680CDD2161BA
:1034100013B92268D20702D501330B4423610D9BF7
:103420004FF00009A365D9E713B92268D00701D589
:103430000233F3E70123F1E74FF06708DDE90D32CE
:10344000934205DB22682361D107E8D50133E5E724
:10345000002BCCBF0123C3F102031344DEE7236832
:103460005A0507D423693A4659462846B0470130E1
:1034700029D164E7B8F1650F40F2D780D4E9120191
:1034800000220023FDF7B2FA88B30123404A5946CF
:103490002846B04701303FF452AFDDE90D239A4290
:1034A00002DB2368D8070ED5DDE9092359462846F3
:1034B000B04701303FF443AF002704F11A080E9BD8
:1034C000013BBB4209DC23689F0700F1FD80E068F7
:1034D0000F9B9842B8BF184633E70123424659462E
:1034E0002846B04701303FF42AAF0137E7E70D9B8C
:1034F000002B2BDC0123264A59462846B0470130D1
:103500003FF41DAF0D9B23B90E9B13B92368D90758
:10351000D9D5DDE9092359462846B04701303FF4A3
:103520000EAF4FF0000804F11A090D9B5B424345B2
:1035300001DC0E9B97E701234A4659462846B047CF
:1035400001303FF4FCAE08F10108EEE70E9AA36DDE
:103550009A42A8BF1A46002A904607DD13465946EC
:103560003A462846B04701303FF4E9AE04F11A0369
:103570004FF0000A28EAE8780B9315E0FFFFEF7F91
:10358000B86D0008B46D0008C06D0008BC6D00087F
:10359000C46D000801230B9A59462846B0470130F4
:1035A0003FF4CDAE0AF1010AD4F85890A9EB080314
:1035B0005345EFDCDDE90D239A424F4414DB2368C9
:1035C000DA0711D40E9B0D99A3EB0902A3EB0109B5
:1035D0009145A8BF9146B9F1000F0DDC002729EAFB
:1035E000E97904F11A0818E0DDE90923594628466B
:1035F000B0470130E6D1A2E64B463A465946284646
:10360000B0470130EAD19AE601234246594628469E
:10361000B04701303FF493AE0137DDE90D239B1A2B
:10362000A3EB0903BB42EFDC4DE70E9A012A01DC54
:10363000DB0738D501233A4659462846B0470130C2
:103640003FF47DAEDDE9092359462846B0470130F5
:1036500007F101073FF473AED4E912010E9B00227B
:1036600003F1FF380023FDF7C1F9C0B943463A46DC
:1036700059462846B04701300DD160E60123424645
:1036800059462846B04701303FF459AE01370E9BEA
:10369000013BBB42F2DC4B4604F15002E4E600275A
:1036A00004F11A08F3E70123E1E7012342465946F2
:1036B0002846B04701303FF442AE0137E3680F9A25
:1036C0009B1ABB42F1DC02E7002704F11908F5E779
:1036D000002B3FF494AE4FF0000CCDE9051C0DF12A
:1036E00033012260CDE90308CDE9012100933A4678
:1036F0004B462846FFF73BFD07464FE62DE9F047CE
:1037000091461F468A680B6906469342B8BF134626
:10371000C9F8003091F843200C46DDF8208012B142
:103720000133C9F800302368990642BFD9F8003048
:103730000233C9F80030256815F0060507D104F1F9
:10374000190AE368D9F800209B1AAB4229DC94F8E7
:1037500043302268003318BF012392062ED404F1AF
:10376000430239463046C047013021D02368E5681E
:1037700003F00603042B18BF0025D9F800204FF0F2
:10378000000908BFAD1AA368226908BF25EAE575DC
:103790009342C4BF9B1AED181A344D451AD100202C
:1037A00008E00123524639463046C047013003D174
:1037B0004FF0FF30BDE8F0870135C2E73020E11857
:1037C00081F843005A1C94F845102244023382F8D1
:1037D0004310C4E70123224639463046C047013032
:1037E000E6D009F10109D8E72DE9F04301F1430CD6
:1037F0000C46097E85B06E291746064698460C9AF7
:1038000000F0B38022D8632936D00AD8002900F00E
:10381000B980582900F0838004F1420584F84210F1
:1038200032E0642901D06929F6D1206813680506C1
:1038300003F104012AD51B681160002B03DA2D2245
:103840005B4284F843206F480A2239E0732900F074
:103850009D8008D86F2920D07029DDD1236843F0DE
:103860002003236003E0752917D07829D4D1782369
:10387000654884F8453055E0136804F14205191D88
:103880001B68116084F8423001238CE01B6810F043
:10389000400F116018BF1BB2CFE713682568181DD1
:1038A0001060280601D51B6802E06806FBD51B885E
:1038B0006F2914BF0A2208225248002184F84310BD
:1038C0006568002DA560C0F29580216821F0040193
:1038D0002160002B3DD1002D40F08E806546082AE6
:1038E0000BD12368DB0708D5236962689A42DEBFE3
:1038F000302305F8013C05F1FF35ACEB05032361EE
:10390000CDF800803B4603AA21463046FFF7F6FE7D
:1039100001304DD14FF0FF3005B0BDE8F08339489C
:1039200084F84510136821681D1D1B6815600A0680
:103930000BD5CA0744BF41F0200121601BB92268A2
:1039400022F0200222601022B7E74D0648BF9BB24A
:10395000EFE76546B3FBF2F102FB1133C35C05F8F8
:10396000013D0B460029F5D1B9E713682568181DFC
:103970006169106028061B6801D5196002E06A06BB
:10398000FBD51980002365462361B9E71368191D2B
:1039900011601D6862680021284602F0D7FA08B15C
:1039A000401B606063682361002384F84330A7E70D
:1039B00023692A4639463046C0470130AAD02368D9
:1039C0009B0713D4E068039B9842B8BF1846A3E74F
:1039D00001234A4639463046C04701309AD0013566
:1039E000E368039A9B1AAB42F2DCEBE7002504F193
:1039F0001909F5E7002BACD1037804F1420584F8EE
:103A000042306CE7C66D0008D76D00082DE9F04F15
:103A10009A468B6816465A1EB2F5AE7F88BF6FF481
:103A2000AE7287B085BF9B180193002340F25D13EF
:103A300088464FF0000B8CBF8B6001930B680746E4
:103A400043F4F06348F81C3B0C4645465A46D946B9
:103A5000CDE903BBCDF808B0A16881B133681B780C
:103A6000492B71D04DD8392B40D8312B80F088802C
:103A70002D2B00F0908015D82B2B00F08C80B9F105
:103A8000000F03D0236823F480732360013A012AD6
:103A900000F2EA80454500F2DC800126304607B09E
:103AA000BDE8F08F2E2B00F09F80302BE7D12068EF
:103AB00010F4807F64D0019B20F08000206009F129
:103AC00001091BB1013B01310193A160A368013BD6
:103AD000A3602369013323617368013B002B73608A
:103AE00040F3AC80336801333360B5E7452B00F019
:103AF0008580462B6AD0412BC1D1012ABFD1022239
:103B000046E0652B7AD018D8542B66D011D84E2BAE
:103B1000B5D1002A46D1B9F1000F45D1216801F491
:103B2000E060B0F5E06F3FD121F4F0612160012247
:103B30002EE0592B1ED0612BDEE76E2BE9D015D875
:103B4000662B43D0692B9AD1BBF1000F38D1B9F164
:103B5000000F97D1216801F4E060B0F5E06F95D1D6
:103B600021F4F06121604FF0010B11E0742B34D08F
:103B7000792B84D1BBF1070F81D14FF0080B07E0FF
:103B800012EB0B0F7FF47BAF216821F4C071216031
:103B90002B7001359AE7216808067FF570AF21F098
:103BA0008001F4E7022A47D0BBF1010F03D0BBF13B
:103BB000040F7FF464AF0BF1010B5FFA8BFBE7E7B7
:103BC000BBF1030FF7D0BBF1050FF2E7BBF1020F1A
:103BD0007FF455AF4FF0030BDAE7BBF1060F7FF42C
:103BE0004EAF4FF0070BD3E7216888057FF547AF4D
:103BF00021F420712160CDF80890C9E7216801F413
:103C0000A060B0F5806F06D048057FF538AFB9F1F8
:103C1000000F3FF43BAF880558BF029821F4F061D4
:103C200058BFA9EB000041F4C07158BFCDE90305AE
:103C300021604FF00009ABE70322A9E7D4F88031F7
:103C40003146384605929847059A00283FF404AF5C
:103C500015E7D4F87C31324615F8011D38469847EF
:103C60002369013B236115E70BF1FF33062B0AD8CB
:103C7000BBF1020F67D9ABF1030B5FFA8BFBA5EB2E
:103C80000B0B5D454AD12368DA051FD55B0567D468
:103C900015F8011C2369652903F1FF3305F1FF3B8A
:103CA00023610DD045290BD0D4F87C3132463846FB
:103CB0009847236915F8021C013BA5F1020B23610B
:103CC000D4F87C313246384698475D46266816F06F
:103CD000100676D12E70236803F4C063B3F5806FAD
:103CE00041D1029BA9EB03035A42002B48D1414624
:103CF0000022384600F0CCFE2568804615F0020F01
:103D00008946DAF8003046D01A1DCAF800201B6830
:103D1000C3E90089E3680133E360BFE6D4F87C318E
:103D2000324615F8011D384698472369013B236147
:103D3000A7E7D4F87C31324615F8011D384698477C
:103D40002369013B23614545F3D8A6E6D4F87C31CD
:103D5000324615F8011D384698472369013B236117
:103D60004545F3D899E6039B002BC0D004990A235C
:103D700032460131384600F029FF039B049DC21AE8
:103D800004F26F139D4228BF04F5B7750E4928460B
:103D900000F020F8ABE71F1D15F00405CAF800700D
:103DA000B5D11F6802460B46FCF752FE20B12846EB
:103DB00000F00CF83860ADE740464946FCF7A6FE37
:103DC000F8E700266AE600BFE86D00080048704783
:103DD0000000C07F0EB46FF0004100B59CB01DAB79
:103DE00002900690079104910848094953F8042B62
:103DF0000591006802A9019302F0BCFD0022029B1C
:103E00001A701CB05DF804EB03B070470C00002082
:103E10000802FFFF70B50378A3B103460C461846AD
:103E200013F8015B4DB10A4601E0AE4205D01446DD
:103E300012F8016B002EF8D1F1E72378002B08BFB0
:103E4000002070BD1846FCE72DE9F0410F46904672
:103E500002F054FB04460D46B8F1000F11D0C7F331
:103E60000A53C3F16B03002B0BDD00241B0503F188
:103E70007F5505F5401522462B46FCF74FFB0446BF
:103E80000D4620462946BDE8F081000000000000F4
:103E90002DE9F04F1F460023A1B0834638460E4659
:103EA00017921C9302F027F880460068FCF772F91D
:103EB0004FF0000904464FF0000A1B961B9B1A782E
:103EC0000D2A32D8092A36D2002A3ED000230D937B
:103ED0001B9D2B78302B40F0AC806B78582B01D099
:103EE000782B67D10D9B029701931CAB0093894AF5
:103EF0001DAB1BA9584601F023FD10F00704064630
:103F000005D0062C2BD1002301351B950D93179B53
:103F1000002B40F0A6850D9BE3B14A460AF1004311
:103F20001046194621B0BDE8F08F2B2A15D02D2A56
:103F300004D0202ACAD101331B93BFE701220D927E
:103F40005A1C1B925B78002BC2D1179B1B96002B2F
:103F500040F085854A465346E2E70022EFE71C9A87
:103F60003AB135211EA802F0BCFB1C99584602F05C
:103F70002FF8013C042C06D8DFE804F00A031417DC
:103F80000A00DDE91E9A3107C1D54AF0004ABEE7B2
:103F90001D9ADDE91E9302F2334223F4801343EAB3
:103FA000025AF0E7DFF870A1EDE76FF0004A4FF03A
:103FB000FF39E8E71B9B5A1C1B925B78302BF9D02A
:103FC000002BA4D0012300250A2207931B9B0695F2
:103FD000089304951B980778A7F13003D9B20929F3
:103FE00029D92246D8F8001002F0CCFD002831D0A3
:103FF00000203B460246049C0590652B01D0452BD2
:1040000014D124B910B9079B002B9ED000241B9E0D
:10401000731C1B9373782B2B78D02D2B70D04FF003
:10402000000CA3F13007092F7CD91B964FF0000E2E
:104030009AE00023C7E7049901300829D7BF069901
:1040400002FB053502FB01330693049B1B900133F1
:104050000493BFE71B9B1A191B92049A1B5D002A4D
:1040600037D00246049CA3F13001092913D901215C
:104070000591C2E71B9B01305A1C1B925B78302BC9
:10408000F8D0A3F13102082A00F2F0841B9A0892BA
:10409000024600200446B3F1300E00F1010112D0B7
:1040A0000A440A27214600EB040C8C4513D1211841
:1040B000082904F10104044419DC0A21069B01FBD0
:1040C00003E3069300211B9B581C1B905B7808465A
:1040D000C9E70498D3E7082901F1010103DC069B35
:1040E0007B430693E1E71029D8BF7D43DDE7102C21
:1040F000DCBF0A2101FB05E5E4E70123059381E725
:104100004FF0010CB31C1B93B3788AE74FF0000CFF
:10411000F8E700BFF06D00080000F07F1B9B5F1CFC
:104120001B975B78302BF9D0A3F13107082F3FF6AE
:104130007DAFA3F1300E1B9B09931B9B5F1C1B974C
:104140005B78A3F13008B8F1090F37D909997F1AC4
:10415000082F44F61F6737DCBE45A8BFBE46BCF13A
:10416000000F01D0CEF1000E002C51D100287FF4B9
:10417000CEAE079A002A7FF4CAAE059A002A7FF4D1
:10418000E4AE4E2B27D021DC492B7FF4DEAEA449D0
:104190001BA801F009FE00283FF4D7AE1B9BA149E4
:1041A000013B1BA81B9301F0FFFD10B91B9B0133C2
:1041B0001B93DFF884A24FF00009A8E60A2101FB57
:1041C0000E3EAEF1300EB8E7BE46C8E7692BDED032
:1041D0006E2B7FF4BAAE94491BA801F0E5FD0028D0
:1041E0003FF4B3AE1B9B1B78282B0ED11EAA8F4920
:1041F0001BA801F0EDFD052807D11F9BDDF8789085
:1042000043F0FF4A4AF4E00A81E6DFF834A2D2E73D
:10421000AEEB02030793049B0698002B08BF2346CE
:10422000102C0493A046A8BF4FF01008FCF7FCF830
:10423000092C81468A4613DC079B002B3FF467AEAE
:10424000079B7EDD162B65DC794A02EBC30E4A46DE
:10425000DEE900015346FCF761F981468A4656E6DD
:10426000734B03EBC80353E91223FCF757F90646D7
:1042700028460F46FCF7D8F802460B46304639462A
:10428000FBF796FF0F2C81468A46D5DD079BA4EBF2
:1042900008089844B8F1000F40F39A8018F00F0313
:1042A0000AD063494A4601EBC301D1E900015346F4
:1042B000FCF734F981468A4638F00F0877D0B8F514
:1042C0009A7F4BDD4FF00008CDF81080CDF82080AC
:1042D000CDF8188022234FF00009DFF85CA1CBF85D
:1042E0000030089B002B3FF412AE1C99584601F099
:1042F0006FFE0699584601F06BFE0499584601F08E
:1043000067FE0899584601F063FE4146584601F0A1
:104310005FFEFCE5079AC4F125039342B6DB444DEA
:10432000C4F10F0405EBC4014A46D1E9000153462C
:10433000FCF7F4F8079B1C1B05EBC405D5E900232B
:1043400089E713F1160FA1DB394A4846A2EBC302F5
:10435000D2E900235146FCF70BFA7EE700234846DA
:1043600051461D46334E4FEA2818B8F1010F21DCA3
:104370000BB181468A462F4BAAF1547A03EBC5054F
:104380004A46D5E900015346FCF7C8F82A4B0A46CD
:104390000B402A4981468B4294D8A1F580118B426B
:1043A00086BF4FF0FF39DFF89CA002F1547A00235A
:1043B00005937BE018F0010F06D006EBC503D3E9A7
:1043C0000023FCF7ABF8012301354FEA6808CCE77E
:1043D000EDD0C8F1000818F00F020AD0144B48467F
:1043E00003EBC2035146D3E90023FCF7C1F9814630
:1043F0008A465FEA2818DAD0B8F11F0F24DD4FF0A3
:104400000008CDF81080CDF82080CDF81880222348
:104410004FF000094FF0000ACBF8003061E700BF11
:10442000B96D0008436E0008C16D0008046E0008F5
:10443000806E0008586E00080000F07F0000A07C2D
:104440000000F8FFFFFFEF7F18F0100318BF6A238A
:104450004846059351460023A14DB8F1000F00F3E3
:1044600013810BB181468A46059BBBB1CAF30A533F
:10447000C3F16B03002B514610DD1F2B40F310815D
:10448000342BD8BF4FF0FF324FF00009CFBF4FF0B1
:104490005C7A203B02FA03F303EA010A00220023BC
:1044A00048465146FCF7A2FA0028A8D1069B049A78
:1044B000009308992346584601F0DCFD0890002837
:1044C0003FF400AF079A079B002AC3F10003A8BF7F
:1044D00000234FF000080E9322EAE2731693CDF802
:1044E0001080089B5846596801F03EFD0690002850
:1044F0003FF4F0AE089B0C301A6903F10C01023254
:104500009200FEF721FE1EAB01931DAB00934A46BD
:1045100053465846CDE90A9A02F066F81C900028E6
:104520003FF4D8AE0121584601F030FE0490034616
:1045300000283FF4CFAE1D9D1E9A002DABBF0E9BF1
:10454000169BEE185C1B059BA8BF169CA5EB0305EC
:104550001544644B05F1FF35B8BF0E9E9D42C2F174
:10456000360280F2AF805B1B1F2BA2EB03024FF0E1
:10457000010700F39C80002507FA03F30F93B71897
:10458000059BBE4214441C443346A8BF3B46A3428D
:10459000A8BF2346002BC2BFFF1AE41AF61A0E9BCF
:1045A000BBB11A460499584601F08EFE04900028CB
:1045B0003FF490AE01461C9A584601F0F0FD099078
:1045C00000283FF487AE1C99584601F001FD099B75
:1045D0001C93002F7ADC079B002B08DD169A0699A6
:1045E000584601F071FE069000283FF473AE002C8F
:1045F00008DD22460699584601F0B4FE06900028D0
:104600003FF468AE002E08DD32460499584601F0AA
:10461000A9FE049000283FF45DAE069A1C99584606
:1046200001F00EFF804600283FF454AE0024C3681A
:104630000499C4600C9301F0E9FEA04254DA0C9B8B
:10464000F3B9B9F1000F1BD1CAF31303C3B92AF0B0
:1046500000431B0D1B05B3F1D66F11D9D8F81430E8
:104660001BB9D8F81030012B0ADD4146012258460B
:1046700001F078FE0499804601F0C8FE002868DC4D
:10468000059B002B72D130E618F0010F04D0D5E95C
:104690000023FBF743FF01234FEA68080835DCE6F7
:1046A0004FF0FF3202FA03F303EA0909F6E6C5F117
:1046B0007F4505F57F0505F57B45E23507FA05F5EC
:1046C0000F975CE7012300250F9358E73A461C99A2
:1046D000584601F047FE1C9000287FF47CAFF9E5B6
:1046E000186E000802FCFFFFCDF824A040F089807E
:1046F0000C9ACAF3130342B3AF4A934256D1059BB7
:104700004846EBB15346AD4A4FF0FF311A40B2F183
:10471000D46F18D8120DC2F16B0301FA03F398425B
:1047200044D1A74B099A9A4202D101303FF4D2AD4D
:10473000A24B099A4FF000091A4002F5801A9FE730
:104740004FF0FF33EBE70B46E9E77BBBB9F1000F16
:104750002CD105995346994AF1B102EA0A01B1F107
:10476000D66F19DCB1F15C7F7FF751AE0023954A1B
:104770004846CDE914325146DDE91423FBF7CEFE5D
:1047800081468A4600297FF4B0AD00287FF4ADADA4
:104790002223CBF80030A8E51340A3F580136FEA7D
:1047A000135A4FF0FF396FEA0A5A69E79DB1099B26
:1047B0001D423FF465AF0C9B059A4846514673B1C4
:1047C000FFF742FB02460B46DDE90A01FBF7F0FC6E
:1047D00081468A4654E70F9B13EA090FE9E7FFF782
:1047E00033FB02460B46DDE90A01FBF7DFFC002242
:1047F000002381468A46FCF7F9F800287FF407AECB
:104800003EE70499404601F03EFF00224FF080430E
:1048100006460F46FCF7FEF8002875D00C9B002BCF
:1048200047D00026684F684D099B23F000431B0DBD
:104830001B050F930F9A654B9A4240F0CF80DDE93C
:104840000A23CDE91423099B4846A3F1547A514623
:1048500001F054FE02460B4630463946FBF75EFE39
:104860004A465346FBF7A4FC0B465449584A1940A4
:10487000914281465ED90B9B02F15472934203D15F
:104880000A9B01333FF426AD4FF0FF39DFF830A12A
:104890001C99584601F09CFB0699584601F098FB7C
:1048A0000499584601F094FB4146584601F090FBAC
:1048B00017E6B9F1000F19D1099BC3F31303E3B94C
:1048C0000022414B30463946FCF79AF8C8B900221D
:1048D000404B30463946FBF721FE04460D4605F1B4
:1048E000004318941993DDE918679DE7B9F1010FAA
:1048F00003D1099B002B3FF48AAD0026364F0024DC
:1049000091E70C9C334DEAE7324B002230463946A2
:10491000FBF704FE0C9B04460D4633B901F100433E
:1049200010901193DDE910677EE702460B46CDE952
:104930001023F7E703F1547A059B002BA8D12AF046
:1049400000431B0D0F9A1B059A425646A0D12946DB
:104950002046FCF793F8FBF777FD0B460246294605
:104960002046FBF723FC0C9B04460D4633B9B9F1F6
:10497000000F03D1CAF31306002E6AD00AA3D3E9AD
:10498000002320462946FCF73BF800287FF4ADAC15
:1049900007A3D3E9002320462946FCF74FF8002857
:1049A0003FF476AFA1E400BF9535A094FFFFDF3F51
:1049B00035E5AF350000E03FFFFF0F000000F07F5E
:1049C000FFFFEF7F000050390000F03F0000E07F64
:1049D000FFFF9F7C0000E03F0000F0BF059B13B38A
:1049E0000F9BB3F1D46F1ED825A3D3E90023204633
:1049F0002946FCF70FF890B129462046FCF766F8E7
:104A0000002808BF0120FBF70FFD0C9B04460D4654
:104A1000D3B901F1004312901393DDE912670F9AA5
:104A200007F1D6639F1ADDE90A0101F067FD02462E
:104A30000B4630463946FBF771FDDDE90A23FBF7EB
:104A4000B7FB81468A4677E702460B46CDE912233B
:104A5000E3E70DA3D3E90023FBF7D2FF9FE7002391
:104A60000D931B9B179A1360FFF755BA652B4FF0F8
:104A700000023FF442AB012114460591FFF7BFBA93
:104A80000000C0FFFFFFDF419535A094FFFFCF3F3F
:104A9000054B10B41B68054C1B6A002B08BF23464E
:104AA00010BCFFF7F5B900BF0C000020700000201B
:104AB000064B10B41C68064A236A002B08BF134635
:104AC0000A460146204610BCFFF7E2B90C00002060
:104AD000700000202DE9F0478046894692461E4628
:104AE0000F463D46089815F8014B01F001FA2044A5
:104AF000437813F0080332D12D2C32D101227C7877
:104B0000BD1C002E5DD0102E09D1302C07D12B7882
:104B100003F0DF03582B4FD110266C780235002AA2
:104B200014BF4FF000416FF000410027B1FBF6FCCD
:104B3000384606FB1C1EA4F13003092B17D81C466F
:104B4000A64223DD7B1C07D084451CD301D1A6459A
:104B500019DB012700FB064015F8014BEBE72F4658
:104B6000BFE72B2C04BFBD1C7C781A46C9E7A4F113
:104B70004103192B01D8373CE2E7A4F16103192B5B
:104B800004D8573CDCE74FF0FF37E5E77B1C08D142
:104B900022230846C8F80030BAF1000F07D1BDE85B
:104BA000F08702B14042BAF1000FF8D00FB105F121
:104BB000FF39CAF80090F2E73024002EAFD1082662
:104BC000ADE7302CA3D00A26A9E7000037B5064C84
:104BD000064D2468246A002C08BF2C460094FFF779
:104BE00079FF03B030BD00BF0C0000207000002032
:104BF000084B37B51C68084D236A002B08BF2B46AD
:104C0000009313460A4601462046FFF763FF03B0B0
:104C100030BD00BF0C000020700000202DE9F74FD0
:104C200003690C698046A342C0F28480013C01F113
:104C3000140700F1140657F8245056F824000135E3
:104C4000B0FBF5F54FEA840C06EB0C0307EB0C09FF
:104C500001939DB34FF0000A3846B646D34650F84C
:104C6000042B93B205FB03A3120C4FEA134A05FB76
:104C700002A29BB2ABEB0303DEF800B04FEA124A8C
:104C80001FFA8BFB5B441FFA82FBDEF80020814594
:104C9000CBEB124202EB23429BB243EA02434FEAC0
:104CA000224B4EF8043BDAD256F80C3033B9019B54
:104CB000043B9E421A4631D3C8F81040404601F0EA
:104CC000A5FB002826DB30464FF0000C013557F8D5
:104CD000041BD0F800E08BB2ACEB03031FFA8EF29A
:104CE00013440A0CC2EB1E4202EB23429BB243EA7E
:104CF0000243B9454FEA224C40F8043BE7D256F84C
:104D0000242006EB84032AB9043B9E421A460BD3A7
:104D1000C8F81040284603B0BDE8F08F1268043B85
:104D2000002AC9D1013CC4E71268043B002AEFD134
:104D3000013CEAE70020EEE72DE9F04F16461F465A
:104D4000456A95B00446DDF88480CDE902673DB937
:104D5000102001F0E1F86062C0E901550560C5600E
:104D6000636A196851B15A68012393404A608B60A5
:104D7000204601F02DF90022636A1A603B1EAFBF86
:104D80000023012223F000430393ACBFC8F8003096
:104D9000C8F80020AE4BDDF80C8033EA08031BD1C5
:104DA00042F20F73209A1360029B23B9C8F31300D9
:104DB000002800F04585229B53B9A64B21E0A64B65
:104DC00006930833229A1360069815B0BDE8F08F59
:104DD000A04B06930333F5E7DDE9026700220023C9
:104DE00030463946FBF702FE824660B10123209A25
:104DF0001360229B002B00F02085984B229A1360B1
:104E0000013B0693E0E712AB019313AB00933246EC
:104E10003B46204601F0E8FBC8F30A558346002DC7
:104E20007DD0B046C7F3130343F07F5949F44019CE
:104E3000A5F2FF35CDF840A00022894B40464946F7
:104E4000FBF7B4F97CA3D3E90023FBF767FB7CA352
:104E5000D3E90023FBF7ACF9064628460F46FBF7DB
:104E6000F3FA79A3D3E90023FBF758FB02460B467C
:104E700030463946FBF79CF906460F46FBF7FEFD28
:104E800000228246002330463946FBF7B9FD48B17F
:104E90005046FBF7D9FA32463B46FBF7A7FD08B967
:104EA0000AF1FF3ABAF1160F5AD8DDE902236D492B
:104EB00001EBCA01D1E90001FBF7C0FD002851D088
:104EC00000230AF1FF3A0D93129B5D1B6B1E0793A3
:104ED00043BF0023C5F1010907934FF00009BAF160
:104EE000000F41DB079BCDF830A05344079300230C
:104EF00008931E9B092B00F28F80052BC4BF043B37
:104F00001E931E9BC8BF0025A3F10203D8BF012535
:104F1000032B00F28D80DFE803F07B7D2F6FDDE94E
:104F200012531D4405F23240202813DDC0F1400029
:104F3000029B08FA00F805F2124023FA00F048EA52
:104F40000000FBF771FA01238046A1F1F879013DD9
:104F5000109371E7029BC0F1200003FA00F0F0E724
:104F60000123B0E70D90AFE7CAF1000308930023D7
:104F7000A9EB0A090C93BCE7012309931F9B002BA3
:104F800074DD984604930022666A7260042202F17E
:104F90001400984271686ED9204600F0E5FF636AFC
:104FA00030601B68B8F10E0F069300F2ED80002D03
:104FB00000F0EA80DDE90223BAF1000FCDE90E230B
:104FC00077DD284A0AF00F034FEA2A1602EBC303E3
:104FD000F006D3E90023CDE90A2368D5DDE90E0107
:104FE000214B0325D3E90823FBF7C2FBCDE90201DE
:104FF00006F00F061C4F4FE0012309931F9B5344FB
:1050000003F1010804934346012BB8BF0123BAE71B
:105010000023B2E70023F0E70125002309951E9342
:105020004FF0FF3300220493984612231F92AAE701
:1050300001230993F4E700BF61436F63A787D23F61
:10504000B3C8608B288AC63FFB799F501344D33F77
:105050000000F07F496E0008406E0008C56D000832
:105060000000F83F806E0008586E0008012304938A
:1050700098461A46DAE701317160520087E7F10776
:1050800008D5DDE90A01D7E90023FBF747FACDE9A6
:105090000A01013576100837002EF0D1DDE90A2328
:1050A000DDE90201FBF764FBCDE902011BE002250B
:1050B000A0E700F0A480DDE90E01CAF10006A04BD4
:1050C00006F00F0203EBC203D3E90023FBF726FA35
:1050D00002250023CDE902019A4F3611002E40F03F
:1050E0008380002BE0D10D9B002B00F08A80DDE94E
:1050F0000223CDE90A23DDE90A010022924BFBF7E6
:105100007FFC00287DD0B8F1000F7AD0049B002BE3
:1051100036DDDDE90A0100228C4BFBF7FFF9CDE912
:105120000201049E0AF1FF3701352846FBF78CF98E
:10513000DDE90223FBF7F2F90022854BFBF738F893
:10514000A1F15075CDE90A010B95002E5CD1DDE986
:10515000020100227F4BFBF729F80A9A2B46CDE982
:105160000201FBF76BFC002840F08182DDE90201BF
:105170000A9A05F10043FBF743FC002840F07582D2
:10518000DDE90E23CDE90223139B002BC0F24B81F6
:10519000BAF10E0F00F34781694B03EBCA03D3E961
:1051A0000023CDE904231F9B002B80F2D780B8F1A8
:1051B000000F00F3D38040F05782DDE904010022A4
:1051C000644BFBF7ABF9DDE90223FBF72DFC464608
:1051D0004746002840F02D82069B069A5D1C31232D
:1051E0000AF1010A137028E2F20705D5D7E9002376
:1051F000FBF794F901230135761008376EE7022595
:1052000071E75746464690E74D4B03EBC60353E91B
:105210000201099B002B48D002460B4600204E4954
:10522000FBF7A6FADDE90A23FAF7C0FFCDE90A0188
:10523000069DDDE90201FBF721FC1190FBF704F963
:1052400002460B46DDE90201FAF7B0FF119BCDE9FA
:105250000201303305F8013BDDE90A23FBF7D0FBFF
:10526000002863D1DDE9022300203749FAF79EFFC9
:10527000DDE90A23FBF7C4FB002840F0B580069B5C
:10528000EB1A9E427FF77CAFDDE90A0100222F4B2B
:10529000FBF744F90022CDE90A01DDE902012B4BBD
:1052A000FBF73CF9CDE90201C3E7DDE90A23FBF78F
:1052B00035F9069BCDE90A019D191E46DDE902017B
:1052C000FBF7DCFB1190FBF7BFF802460B46DDE96C
:1052D0000201FAF76BFF119BCDE90201303306F8AA
:1052E000013BAE424FF0000224D1DDE90A011A4B26
:1052F000FAF75EFF02460B46DDE90201FBF79EFB73
:10530000002871D1DDE90A2300201349FAF74EFF86
:1053100002460B46DDE90201FBF772FB00283FF471
:105320002FAF15F8013C6A1E302B01D0BA464AE077
:105330001546F6E7054BFBF7F1F8CDE90201BDE7AD
:10534000806E0008586E00080000F03F0000244006
:1053500000001C40000014400000E03F069DDDE915
:105360000267DDE9042330463946FBF701FAFBF713
:1053700085FB8146FBF768F8DDE90423FBF7CEF8EF
:1053800002460B4630463946FAF710FF09F130065F
:1053900005F8016B069E0246AE1BB0450B4635D1A3
:1053A000FAF706FFDDE9042306460F46FBF746FB46
:1053B000C8B9DDE9042330463946FBF717FB10B1C5
:1053C00019F0010F0FD15946204600F001FE0023CD
:1053D000209A2B700AF101031360229B002B3FF4EB
:1053E000F3AC1D60F0E4574615F8012C6B1E392A0A
:1053F00006D1069A9A4207D130231370134601371B
:105400001A7801321A7091E71D46EDE70022994B98
:10541000FBF784F80022002306460F46FBF7E6FA66
:1054200000289ED0CFE7099A002A00F088801E9AB3
:10543000012A6DDC109A002A66D003F233434D46F0
:10544000089E079A01211A4420469944079200F0C9
:105450009DFE0746002D0BDD079B002B08DDAB42B0
:10546000A8BF2B46079AA9EB0309ED1AD31A079395
:10547000089BEBB1099B002B65D08EB139463246B3
:10548000204600F021FF5A4601460746204600F01C
:1054900086FE59460A90204600F09AFD0A9B9B46DC
:1054A000089B9A1B04D05946204600F00DFF834606
:1054B0000121204600F06AFE0C9B0646002B00F0FE
:1054C000C6811A460146204600F0FEFE1E9B064697
:1054D000012B3EDC029B002B37D1039BC3F313034C
:1054E000002B34D1039B23F000431B0D1B052BB174
:1054F000079B09F1010901330793012308930C9BD2
:10550000002B28D101202EE0129BC3F1360396E731
:10551000089B08F1FF36B342B7BF089B9E1BF21AE7
:105520000C9BBFBF08969B180C930026B8F1000F88
:10553000B9BFA9EB080500234D46434681E7089E05
:105540004D46099F86E7089AADE70023D6E7029B00
:10555000D4E700230893336906EB8303186900F04E
:10556000C7FDC0F12000079B184410F01F0047D072
:10557000C0F12003042B3BDD079BC0F11C008144DC
:10558000054403440793B9F1000F05DD59464A4627
:10559000204600F0E7FE8346079B002B05DD3146E1
:1055A0001A46204600F0DEFE06460D9B53B33146F8
:1055B000584600F02BFF002824DA002359460A221F
:1055C000204600F01CFD099B0AF1FF3A8346002BA0
:1055D00000F04481002339460A22204600F00FFDE6
:1055E000049B0746002B4DDC1E9B022B4ADD11E07D
:1055F000C9D0079A1C331A4499441D441346C1E785
:105600000346F6E7B8F1000F36DC1E9B022B33DDB4
:10561000CDF81080049B63B931460522204600F086
:10562000EEFC01460646584600F0F0FE00283FF723
:10563000D3AD1F9B069D6FEA030A4FF00009314668
:10564000204600F0C5FC002F3FF4BDAEB9F1000FBD
:1056500005D0B94503D04946204600F0B9FC39468B
:10566000204600F0B5FCAEE600263746E1E7BA4634
:105670003746B1E500002440099BCDF81080002B8F
:1056800000F0F380002D05DD39462A46204600F063
:1056900069FE0746089B002B4CD07968204600F035
:1056A00063FC05463A6907F10C01023292000C30A6
:1056B000FDF74AFD01222946204600F053FEB94677
:1056C0000746069B0793029B03F0010308933146AC
:1056D0005846FFF7A3FA4946054600F130085846F8
:1056E00000F094FE3A4602903146204600F0A8FEB3
:1056F000C368024603BB01460990584600F086FE87
:105700000346099A11462046099300F061FC099B63
:10571000A3B91E9A92B9089A82B9B8F1390F29D063
:10572000029B002B01DD05F13108079B5D1C83F80E
:10573000008084E73846C2E70123E3E7029A002AA3
:1057400004DB23D11E9A0ABB089AFAB9002BECDDC0
:1057500059460122204600F005FE3146834600F0FE
:1057600055FE002803DCE0D118F0010FDDD0B8F1C0
:10577000390FD8D1079B079A5D1C3923137015F890
:10578000013C6A1E392B4DD0013352E0079A002BA1
:1057900002F1010506DDB8F1390FEBD008F101087F
:1057A000079BC4E7069B049AEB1A934205F8018C09
:1057B00021D0594600230A22204600F020FCB9459A
:1057C00083464FF000034FF00A024946204605D1B8
:1057D00000F015FC81460746079578E700F00FFCBE
:1057E0003946814600230A22204600F008FC07467D
:1057F000F2E74FF0000959460122204600F0B2FDC1
:105800003146834600F002FE0028B8DC02D118F0D1
:10581000010FB4D115F8013C6A1E302B7FF40FAF95
:105820001546F7E7069B934205D13123069A0AF104
:10583000010A137003E71546A1E7174BFFF7E1BA1A
:10584000229B002B7FF4BBAA144BFFF7DABA1E9BF6
:10585000012B7FF73FAE0C9B089353E6049B002B74
:1058600003DC1E9B022B3FF7D5AE069D3146584602
:10587000FFF7D4F9069B00F1300805F8018B049A74
:10588000EB1A9A42B5DD594600230A22204600F061
:10589000B6FB8346EAE700BFC46D0008406E00080F
:1058A000F0B506694B119E4200F1140431DD11F090
:1058B0001F0104EB860604EB830208D12146B242A5
:1058C0000B4611D252F8043B41F8043BF7E754F879
:1058D00023502346C1F1200CCD400432B24217467A
:1058E0000DD31D6005B10433A342A3EB040208BF2E
:1058F00000234FEAA202026108BF4361F0BD3F6886
:1059000007FA0CF73D4343F8045B52F8045BCD40C3
:10591000E4E72346E8E7A0F13003092B02D820385A
:10592000C0B27047A0F16103052B01D84738F7E7F3
:10593000A0F14103052B01D82738F1E7002070477B
:105940002DE9F04F8BB0029016988A469046069348
:1059500000F0D1FA03684FF0000B18460393FAF7F2
:1059600019FC039B0190034413F8013C0793DAF8F8
:10597000003002331F4613F8010B30286CD0FFF7BC
:10598000CAFF044600286AD1019A0399384601F0FB
:10599000F9F8002866D1019BF85CFE18FFF7BBFF01
:1059A000002862D0334618781F46302803F10103DF
:1059B000F9D0FFF7B0FFB0FA80F534464FF0010B95
:1059C0006D093A46164630780132FFF7A4FF0028E9
:1059D000F8D1019A0399304601F0D4F850B954B97E
:1059E000019BF4182246164630780132FFF793FFE8
:1059F0000028F8D10CB1A41BA4003378502B01D09F
:105A0000702B40D173782B2B31D02D2B33D04FF00E
:105A10000009711C0878FFF77EFF431EDBB2182BCC
:105A200031D8A0F1100211F8010FFFF774FF431EE7
:105A3000DBB2182B22D9B9F1000F00D05242144426
:105A4000CAF800100DB3BBF1000F0CBF06270027EA
:105A500038460BB0BDE8F08F0BF1010B8AE700254B
:105A60002C46AEE73E460125C7E70446FBE74FF06C
:105A70000009B11CCEE74FF00109FAE70A2303FB46
:105A80000202103ACFE73146DAE72946F31B013B21
:105A9000072B49DC029800F067FA4FF0000B05462F
:105AA000DA46019B00F11409C3F10103CDF810900F
:105AB0000893B7423BD3049840F804ABA0EB09002D
:105AC000801028614701504600F012FBD8F80060B2
:105AD0003F1AB74264DDBF1B3946284600F01BFE63
